{
  "contractName": "HelloWorld",
  "abi": [
    {
      "constant": false,
      "inputs": [
        {
          "internalType": "string",
          "name": "username",
          "type": "string"
        }
      ],
      "name": "addUser",
      "outputs": [],
      "payable": false,
      "stateMutability": "nonpayable",
      "type": "function"
    },
    {
      "constant": false,
      "inputs": [
        {
          "internalType": "uint256",
          "name": "userIndex",
          "type": "uint256"
        },
        {
          "internalType": "string",
          "name": "newUser",
          "type": "string"
        }
      ],
      "name": "updateUser",
      "outputs": [
        {
          "internalType": "bool",
          "name": "",
          "type": "bool"
        }
      ],
      "payable": false,
      "stateMutability": "nonpayable",
      "type": "function"
    },
    {
      "constant": false,
      "inputs": [
        {
          "internalType": "uint256",
          "name": "userIndex",
          "type": "uint256"
        }
      ],
      "name": "deleteUser",
      "outputs": [
        {
          "internalType": "bool",
          "name": "",
          "type": "bool"
        }
      ],
      "payable": false,
      "stateMutability": "nonpayable",
      "type": "function"
    },
    {
      "constant": true,
      "inputs": [],
      "name": "getUser",
      "outputs": [
        {
          "internalType": "string[]",
          "name": "",
          "type": "string[]"
        }
      ],
      "payable": false,
      "stateMutability": "view",
      "type": "function"
    }
  ],
  "bytecode": "0x608060405234801561001057600080fd5b50610844806100206000396000f3fe608060405234801561001057600080fd5b506004361061004c5760003560e01c806318b8275a1461005157806338f148451461006d578063832880e71461009d578063d85340e7146100bb575b600080fd5b61006b60048036036100669190810190610507565b6100eb565b005b61008760048036036100829190810190610548565b61012d565b60405161009491906106b8565b60405180910390f35b6100a56101f2565b6040516100b29190610696565b60405180910390f35b6100d560048036036100d09190810190610571565b6102db565b6040516100e291906106b8565b60405180910390f35b600081908060018154018082558091505090600182039060005260206000200160009091929091909150908051906020019061012892919061032a565b505050565b60008160008054905011156101e85760008080549050905060008390505b600182038110156101b4576000600182018154811061016657fe5b906000526020600020016000828154811061017d57fe5b9060005260206000200190805460018160011615610100020316600290046101a69291906103aa565b50808060010191505061014b565b5060008054806101c057fe5b6001900381819060005260206000200160006101dc9190610431565b905560019150506101ed565b600090505b919050565b60606000805480602002602001604051908101604052809291908181526020016000905b828210156102d2578382906000526020600020018054600181600116156101000203166002900480601f0160208091040260200160405190810160405280929190818152602001828054600181600116156101000203166002900480156102be5780601f10610293576101008083540402835291602001916102be565b820191906000526020600020905b8154815290600101906020018083116102a157829003601f168201915b505050505081526020019060010190610216565b50505050905090565b600082600080549050111561031f5781600084815481106102f857fe5b90600052602060002001908051906020019061031592919061032a565b5060019050610324565b600090505b92915050565b828054600181600116156101000203166002900490600052602060002090601f016020900481019282601f1061036b57805160ff1916838001178555610399565b82800160010185558215610399579182015b8281111561039857825182559160200191906001019061037d565b5b5090506103a69190610479565b5090565b828054600181600116156101000203166002900490600052602060002090601f016020900481019282601f106103e35780548555610420565b8280016001018555821561042057600052602060002091601f016020900482015b8281111561041f578254825591600101919060010190610404565b5b50905061042d9190610479565b5090565b50805460018160011615610100020316600290046000825580601f106104575750610476565b601f0160209004906000526020600020908101906104759190610479565b5b50565b61049b91905b8082111561049757600081600090555060010161047f565b5090565b90565b600082601f8301126104af57600080fd5b81356104c26104bd82610700565b6106d3565b915080825260208301602083018583830111156104de57600080fd5b6104e9838284610797565b50505092915050565b600081359050610501816107ea565b92915050565b60006020828403121561051957600080fd5b600082013567ffffffffffffffff81111561053357600080fd5b61053f8482850161049e565b91505092915050565b60006020828403121561055a57600080fd5b6000610568848285016104f2565b91505092915050565b6000806040838503121561058457600080fd5b6000610592858286016104f2565b925050602083013567ffffffffffffffff8111156105af57600080fd5b6105bb8582860161049e565b9150509250929050565b60006105d1838361065d565b905092915050565b60006105e48261073c565b6105ee818561075f565b9350836020820285016106008561072c565b8060005b8581101561063c578484038952815161061d85826105c5565b945061062883610752565b925060208a01995050600181019050610604565b50829750879550505050505092915050565b61065781610781565b82525050565b600061066882610747565b6106728185610770565b93506106828185602086016107a6565b61068b816107d9565b840191505092915050565b600060208201905081810360008301526106b081846105d9565b905092915050565b60006020820190506106cd600083018461064e565b92915050565b6000604051905081810181811067ffffffffffffffff821117156106f657600080fd5b8060405250919050565b600067ffffffffffffffff82111561071757600080fd5b601f19601f8301169050602081019050919050565b6000819050602082019050919050565b600081519050919050565b600081519050919050565b6000602082019050919050565b600082825260208201905092915050565b600082825260208201905092915050565b60008115159050919050565b6000819050919050565b82818337600083830152505050565b60005b838110156107c45780820151818401526020810190506107a9565b838111156107d3576000848401525b50505050565b6000601f19601f8301169050919050565b6107f38161078d565b81146107fe57600080fd5b5056fea365627a7a72315820e75ca6dbbd764b18290ed9fb918944b260f6b66e43d139a8ee518613460a83056c6578706572696d656e74616cf564736f6c63430005100040",
  "source": "// SPDX-License-Identifier: MIT\r\npragma solidity >=0.4.21 <8.10.0;\r\npragma experimental ABIEncoderV2;\r\n\r\ncontract HelloWorld {\r\n    string[] myUser;\r\n\r\n    function addUser (string memory username) public {\r\n        myUser.push(username);\r\n    }\r\n\r\n    function updateUser (uint userIndex, string memory newUser) public returns (bool) {\r\n        if (myUser.length > userIndex) {\r\n            myUser [userIndex] = newUser;\r\n            return true;\r\n        }\r\n        return false;\r\n    }\r\n\r\n    function deleteUser (uint userIndex) public returns (bool) {\r\n        if (myUser.length > userIndex) {\r\n            uint len = myUser.length;\r\n            for(uint i = userIndex; i < len-1; i++) {\r\n                myUser[i] = myUser[i+1];\r\n            }\r\n            myUser.pop();\r\n            return true;\r\n        }\r\n        return false;\r\n    }\r\n\r\n    function getUser() public view returns (string[]memory){\r\n        return myUser;\r\n    }\r\n}\r\n\r\n",
  "sourcePath": "D:\\Vanilla\\Documents\\Kuliah\\Semester 6\\PIF\\PROYEKIF_A03\\contracts\\HelloWorld.sol",
  "compiler": {
    "name": "solc",
    "version": "0.5.16+commit.9c3226ce.Emscripten.clang"
  },
  "schemaVersion": "3.4.7",
  "updatedAt": "2022-05-21T16:25:05.249Z",
  "networkType": "ethereum",
  "devdoc": {
    "methods": {}
  },
  "userdoc": {
    "methods": {}
  }
}